{
  "_format": "hh-sol-artifact-1",
  "contractName": "FilpDapp",
  "sourceName": "contracts/FilpDapp.sol",
  "abi": [
    {
      "inputs": [],
      "stateMutability": "nonpayable",
      "type": "constructor"
    },
    {
      "anonymous": false,
      "inputs": [
        {
          "indexed": false,
          "internalType": "address",
          "name": "buyer",
          "type": "address"
        },
        {
          "indexed": false,
          "internalType": "uint256",
          "name": "orderId",
          "type": "uint256"
        },
        {
          "indexed": false,
          "internalType": "uint256",
          "name": "itemId",
          "type": "uint256"
        }
      ],
      "name": "Buy",
      "type": "event"
    },
    {
      "anonymous": false,
      "inputs": [
        {
          "indexed": false,
          "internalType": "string",
          "name": "name",
          "type": "string"
        },
        {
          "indexed": false,
          "internalType": "uint256",
          "name": "cost",
          "type": "uint256"
        },
        {
          "indexed": false,
          "internalType": "uint256",
          "name": "quantity",
          "type": "uint256"
        }
      ],
      "name": "Lists",
      "type": "event"
    },
    {
      "inputs": [
        {
          "internalType": "uint256",
          "name": "_id",
          "type": "uint256"
        }
      ],
      "name": "buy",
      "outputs": [],
      "stateMutability": "payable",
      "type": "function"
    },
    {
      "inputs": [
        {
          "internalType": "uint256",
          "name": "",
          "type": "uint256"
        }
      ],
      "name": "items",
      "outputs": [
        {
          "internalType": "uint256",
          "name": "id",
          "type": "uint256"
        },
        {
          "internalType": "string",
          "name": "name",
          "type": "string"
        },
        {
          "internalType": "string",
          "name": "category",
          "type": "string"
        },
        {
          "internalType": "string",
          "name": "image",
          "type": "string"
        },
        {
          "internalType": "uint256",
          "name": "cost",
          "type": "uint256"
        },
        {
          "internalType": "uint256",
          "name": "rating",
          "type": "uint256"
        },
        {
          "internalType": "uint256",
          "name": "stock",
          "type": "uint256"
        }
      ],
      "stateMutability": "view",
      "type": "function"
    },
    {
      "inputs": [
        {
          "internalType": "uint256",
          "name": "_id",
          "type": "uint256"
        },
        {
          "internalType": "string",
          "name": "_name",
          "type": "string"
        },
        {
          "internalType": "string",
          "name": "_category",
          "type": "string"
        },
        {
          "internalType": "string",
          "name": "_image",
          "type": "string"
        },
        {
          "internalType": "uint256",
          "name": "_cost",
          "type": "uint256"
        },
        {
          "internalType": "uint256",
          "name": "_rating",
          "type": "uint256"
        },
        {
          "internalType": "uint256",
          "name": "_stock",
          "type": "uint256"
        }
      ],
      "name": "list",
      "outputs": [],
      "stateMutability": "nonpayable",
      "type": "function"
    },
    {
      "inputs": [
        {
          "internalType": "address",
          "name": "",
          "type": "address"
        }
      ],
      "name": "orderCount",
      "outputs": [
        {
          "internalType": "uint256",
          "name": "",
          "type": "uint256"
        }
      ],
      "stateMutability": "view",
      "type": "function"
    },
    {
      "inputs": [
        {
          "internalType": "address",
          "name": "",
          "type": "address"
        },
        {
          "internalType": "uint256",
          "name": "",
          "type": "uint256"
        }
      ],
      "name": "orders",
      "outputs": [
        {
          "internalType": "uint256",
          "name": "time",
          "type": "uint256"
        },
        {
          "components": [
            {
              "internalType": "uint256",
              "name": "id",
              "type": "uint256"
            },
            {
              "internalType": "string",
              "name": "name",
              "type": "string"
            },
            {
              "internalType": "string",
              "name": "category",
              "type": "string"
            },
            {
              "internalType": "string",
              "name": "image",
              "type": "string"
            },
            {
              "internalType": "uint256",
              "name": "cost",
              "type": "uint256"
            },
            {
              "internalType": "uint256",
              "name": "rating",
              "type": "uint256"
            },
            {
              "internalType": "uint256",
              "name": "stock",
              "type": "uint256"
            }
          ],
          "internalType": "struct FilpDapp.Item",
          "name": "item",
          "type": "tuple"
        }
      ],
      "stateMutability": "view",
      "type": "function"
    },
    {
      "inputs": [],
      "name": "owner",
      "outputs": [
        {
          "internalType": "address",
          "name": "",
          "type": "address"
        }
      ],
      "stateMutability": "view",
      "type": "function"
    },
    {
      "inputs": [],
      "name": "withdraw",
      "outputs": [],
      "stateMutability": "nonpayable",
      "type": "function"
    }
  ],
  "bytecode": "0x608060405234801561001057600080fd5b50336000806101000a81548173ffffffffffffffffffffffffffffffffffffffff021916908373ffffffffffffffffffffffffffffffffffffffff1602179055506117da806100606000396000f3fe6080604052600436106100705760003560e01c80638da5cb5b1161004e5780638da5cb5b14610107578063bfb231d214610132578063d96a094a14610175578063eea8a7e81461019157610070565b80633ccfd60b14610075578063713d856b1461008c578063793b8c6d146100c9575b600080fd5b34801561008157600080fd5b5061008a6101ba565b005b34801561009857600080fd5b506100b360048036038101906100ae9190610d5e565b6102e2565b6040516100c09190610da4565b60405180910390f35b3480156100d557600080fd5b506100f060048036038101906100eb9190610deb565b6102fa565b6040516100fe929190610f74565b60405180910390f35b34801561011357600080fd5b5061011c610513565b6040516101299190610fb3565b60405180910390f35b34801561013e57600080fd5b5061015960048036038101906101549190610fce565b610537565b60405161016c9796959493929190611045565b60405180910390f35b61018f600480360381019061018a9190610fce565b610711565b005b34801561019d57600080fd5b506101b860048036038101906101b391906111fe565b610b61565b005b60008054906101000a900473ffffffffffffffffffffffffffffffffffffffff1673ffffffffffffffffffffffffffffffffffffffff163373ffffffffffffffffffffffffffffffffffffffff1614610248576040517f08c379a000000000000000000000000000000000000000000000000000000000815260040161023f90611340565b60405180910390fd5b60008060009054906101000a900473ffffffffffffffffffffffffffffffffffffffff1673ffffffffffffffffffffffffffffffffffffffff164760405161028f90611391565b60006040518083038185875af1925050503d80600081146102cc576040519150601f19603f3d011682016040523d82523d6000602084013e6102d1565b606091505b50509050806102df57600080fd5b50565b60026020528060005260406000206000915090505481565b600360205281600052604060002060205280600052604060002060009150915050806000015490806001016040518060e00160405290816000820154815260200160018201805461034a906113d5565b80601f0160208091040260200160405190810160405280929190818152602001828054610376906113d5565b80156103c35780601f10610398576101008083540402835291602001916103c3565b820191906000526020600020905b8154815290600101906020018083116103a657829003601f168201915b505050505081526020016002820180546103dc906113d5565b80601f0160208091040260200160405190810160405280929190818152602001828054610408906113d5565b80156104555780601f1061042a57610100808354040283529160200191610455565b820191906000526020600020905b81548152906001019060200180831161043857829003601f168201915b5050505050815260200160038201805461046e906113d5565b80601f016020809104026020016040519081016040528092919081815260200182805461049a906113d5565b80156104e75780601f106104bc576101008083540402835291602001916104e7565b820191906000526020600020905b8154815290600101906020018083116104ca57829003601f168201915b505050505081526020016004820154815260200160058201548152602001600682015481525050905082565b60008054906101000a900473ffffffffffffffffffffffffffffffffffffffff1681565b6001602052806000526040600020600091509050806000015490806001018054610560906113d5565b80601f016020809104026020016040519081016040528092919081815260200182805461058c906113d5565b80156105d95780601f106105ae576101008083540402835291602001916105d9565b820191906000526020600020905b8154815290600101906020018083116105bc57829003601f168201915b5050505050908060020180546105ee906113d5565b80601f016020809104026020016040519081016040528092919081815260200182805461061a906113d5565b80156106675780601f1061063c57610100808354040283529160200191610667565b820191906000526020600020905b81548152906001019060200180831161064a57829003601f168201915b50505050509080600301805461067c906113d5565b80601f01602080910402602001604051908101604052809291908181526020018280546106a8906113d5565b80156106f55780601f106106ca576101008083540402835291602001916106f5565b820191906000526020600020905b8154815290600101906020018083116106d857829003601f168201915b5050505050908060040154908060050154908060060154905087565b6000600160008381526020019081526020016000206040518060e00160405290816000820154815260200160018201805461074b906113d5565b80601f0160208091040260200160405190810160405280929190818152602001828054610777906113d5565b80156107c45780601f10610799576101008083540402835291602001916107c4565b820191906000526020600020905b8154815290600101906020018083116107a757829003601f168201915b505050505081526020016002820180546107dd906113d5565b80601f0160208091040260200160405190810160405280929190818152602001828054610809906113d5565b80156108565780601f1061082b57610100808354040283529160200191610856565b820191906000526020600020905b81548152906001019060200180831161083957829003601f168201915b5050505050815260200160038201805461086f906113d5565b80601f016020809104026020016040519081016040528092919081815260200182805461089b906113d5565b80156108e85780601f106108bd576101008083540402835291602001916108e8565b820191906000526020600020905b8154815290600101906020018083116108cb57829003601f168201915b5050505050815260200160048201548152602001600582015481526020016006820154815250509050806080015134101561092257600080fd5b60008160c001511161093357600080fd5b60006040518060400160405280428152602001838152509050600260003373ffffffffffffffffffffffffffffffffffffffff1673ffffffffffffffffffffffffffffffffffffffff168152602001908152602001600020600081548092919061099c90611435565b919050555080600360003373ffffffffffffffffffffffffffffffffffffffff1673ffffffffffffffffffffffffffffffffffffffff1681526020019081526020016000206000600260003373ffffffffffffffffffffffffffffffffffffffff1673ffffffffffffffffffffffffffffffffffffffff16815260200190815260200160002054815260200190815260200160002060008201518160000155602082015181600101600082015181600001556020820151816001019081610a639190611629565b506040820151816002019081610a799190611629565b506060820151816003019081610a8f9190611629565b506080820151816004015560a0820151816005015560c08201518160060155505090505060018260c00151610ac491906116fb565b60016000858152602001908152602001600020600601819055507f1cbc5ab135991bd2b6a4b034a04aa2aa086dac1371cb9b16b8b5e2ed6b036bed33600260003373ffffffffffffffffffffffffffffffffffffffff1673ffffffffffffffffffffffffffffffffffffffff168152602001908152602001600020548460000151604051610b549392919061172f565b60405180910390a1505050565b60008054906101000a900473ffffffffffffffffffffffffffffffffffffffff1673ffffffffffffffffffffffffffffffffffffffff163373ffffffffffffffffffffffffffffffffffffffff1614610bef576040517f08c379a0000000000000000000000000000000000000000000000000000000008152600401610be690611340565b60405180910390fd5b60006040518060e0016040528089815260200188815260200187815260200186815260200185815260200184815260200183815250905080600160008a8152602001908152602001600020600082015181600001556020820151816001019081610c599190611629565b506040820151816002019081610c6f9190611629565b506060820151816003019081610c859190611629565b506080820151816004015560a0820151816005015560c082015181600601559050507fa555bca0a74ac2ff0e592bbbbc9e77b721e8d9e586f53649bb6a1e0fb4de8e1c878584604051610cda93929190611766565b60405180910390a15050505050505050565b6000604051905090565b600080fd5b600080fd5b600073ffffffffffffffffffffffffffffffffffffffff82169050919050565b6000610d2b82610d00565b9050919050565b610d3b81610d20565b8114610d4657600080fd5b50565b600081359050610d5881610d32565b92915050565b600060208284031215610d7457610d73610cf6565b5b6000610d8284828501610d49565b91505092915050565b6000819050919050565b610d9e81610d8b565b82525050565b6000602082019050610db96000830184610d95565b92915050565b610dc881610d8b565b8114610dd357600080fd5b50565b600081359050610de581610dbf565b92915050565b60008060408385031215610e0257610e01610cf6565b5b6000610e1085828601610d49565b9250506020610e2185828601610dd6565b9150509250929050565b610e3481610d8b565b82525050565b600081519050919050565b600082825260208201905092915050565b60005b83811015610e74578082015181840152602081019050610e59565b60008484015250505050565b6000601f19601f8301169050919050565b6000610e9c82610e3a565b610ea68185610e45565b9350610eb6818560208601610e56565b610ebf81610e80565b840191505092915050565b600060e083016000830151610ee26000860182610e2b565b5060208301518482036020860152610efa8282610e91565b91505060408301518482036040860152610f148282610e91565b91505060608301518482036060860152610f2e8282610e91565b9150506080830151610f436080860182610e2b565b5060a0830151610f5660a0860182610e2b565b5060c0830151610f6960c0860182610e2b565b508091505092915050565b6000604082019050610f896000830185610d95565b8181036020830152610f9b8184610eca565b90509392505050565b610fad81610d20565b82525050565b6000602082019050610fc86000830184610fa4565b92915050565b600060208284031215610fe457610fe3610cf6565b5b6000610ff284828501610dd6565b91505092915050565b600082825260208201905092915050565b600061101782610e3a565b6110218185610ffb565b9350611031818560208601610e56565b61103a81610e80565b840191505092915050565b600060e08201905061105a600083018a610d95565b818103602083015261106c818961100c565b90508181036040830152611080818861100c565b90508181036060830152611094818761100c565b90506110a36080830186610d95565b6110b060a0830185610d95565b6110bd60c0830184610d95565b98975050505050505050565b600080fd5b600080fd5b7f4e487b7100000000000000000000000000000000000000000000000000000000600052604160045260246000fd5b61110b82610e80565b810181811067ffffffffffffffff8211171561112a576111296110d3565b5b80604052505050565b600061113d610cec565b90506111498282611102565b919050565b600067ffffffffffffffff821115611169576111686110d3565b5b61117282610e80565b9050602081019050919050565b82818337600083830152505050565b60006111a161119c8461114e565b611133565b9050828152602081018484840111156111bd576111bc6110ce565b5b6111c884828561117f565b509392505050565b600082601f8301126111e5576111e46110c9565b5b81356111f584826020860161118e565b91505092915050565b600080600080600080600060e0888a03121561121d5761121c610cf6565b5b600061122b8a828b01610dd6565b975050602088013567ffffffffffffffff81111561124c5761124b610cfb565b5b6112588a828b016111d0565b965050604088013567ffffffffffffffff81111561127957611278610cfb565b5b6112858a828b016111d0565b955050606088013567ffffffffffffffff8111156112a6576112a5610cfb565b5b6112b28a828b016111d0565b94505060806112c38a828b01610dd6565b93505060a06112d48a828b01610dd6565b92505060c06112e58a828b01610dd6565b91505092959891949750929550565b7f596f7520617265206e6f74206f776e6572000000000000000000000000000000600082015250565b600061132a601183610ffb565b9150611335826112f4565b602082019050919050565b600060208201905081810360008301526113598161131d565b9050919050565b600081905092915050565b50565b600061137b600083611360565b91506113868261136b565b600082019050919050565b600061139c8261136e565b9150819050919050565b7f4e487b7100000000000000000000000000000000000000000000000000000000600052602260045260246000fd5b600060028204905060018216806113ed57607f821691505b602082108103611400576113ff6113a6565b5b50919050565b7f4e487b7100000000000000000000000000000000000000000000000000000000600052601160045260246000fd5b600061144082610d8b565b91507fffffffffffffffffffffffffffffffffffffffffffffffffffffffffffffffff820361147257611471611406565b5b600182019050919050565b60008190508160005260206000209050919050565b60006020601f8301049050919050565b600082821b905092915050565b6000600883026114df7fffffffffffffffffffffffffffffffffffffffffffffffffffffffffffffffff826114a2565b6114e986836114a2565b95508019841693508086168417925050509392505050565b6000819050919050565b600061152661152161151c84610d8b565b611501565b610d8b565b9050919050565b6000819050919050565b6115408361150b565b61155461154c8261152d565b8484546114af565b825550505050565b600090565b61156961155c565b611574818484611537565b505050565b5b818110156115985761158d600082611561565b60018101905061157a565b5050565b601f8211156115dd576115ae8161147d565b6115b784611492565b810160208510156115c6578190505b6115da6115d285611492565b830182611579565b50505b505050565b600082821c905092915050565b6000611600600019846008026115e2565b1980831691505092915050565b600061161983836115ef565b9150826002028217905092915050565b61163282610e3a565b67ffffffffffffffff81111561164b5761164a6110d3565b5b61165582546113d5565b61166082828561159c565b600060209050601f8311600181146116935760008415611681578287015190505b61168b858261160d565b8655506116f3565b601f1984166116a18661147d565b60005b828110156116c9578489015182556001820191506020850194506020810190506116a4565b868310156116e657848901516116e2601f8916826115ef565b8355505b6001600288020188555050505b505050505050565b600061170682610d8b565b915061171183610d8b565b925082820390508181111561172957611728611406565b5b92915050565b60006060820190506117446000830186610fa4565b6117516020830185610d95565b61175e6040830184610d95565b949350505050565b60006060820190508181036000830152611780818661100c565b905061178f6020830185610d95565b61179c6040830184610d95565b94935050505056fea2646970667358221220e89ad39fef12174c18918eb019db276f74607fe4d5c38974dc6dbbf9318e9d0a64736f6c63430008110033",
  "linkReferences": {},
  "deployedLinkReferences": {}
}